{"abi":[{"type":"function","name":"accept","inputs":[{"name":"requestId","type":"uint256","internalType":"uint256"}],"outputs":[],"stateMutability":"nonpayable"},{"type":"function","name":"balance","inputs":[{"name":"","type":"address","internalType":"address"}],"outputs":[{"name":"","type":"uint256","internalType":"uint256"}],"stateMutability":"view"},{"type":"function","name":"cancel","inputs":[{"name":"requestId","type":"uint256","internalType":"uint256"}],"outputs":[],"stateMutability":"nonpayable"},{"type":"function","name":"deposit","inputs":[],"outputs":[],"stateMutability":"payable"},{"type":"function","name":"getBalance","inputs":[{"name":"user","type":"address","internalType":"address"}],"outputs":[{"name":"","type":"uint256","internalType":"uint256"}],"stateMutability":"view"},{"type":"function","name":"getPayments","inputs":[{"name":"user","type":"address","internalType":"address"}],"outputs":[{"name":"","type":"tuple[]","internalType":"struct SwooshStorage.Payment[]","components":[{"name":"id","type":"uint256","internalType":"uint256"},{"name":"creditor","type":"address","internalType":"address"},{"name":"debtor","type":"address","internalType":"address"},{"name":"amount","type":"uint256","internalType":"uint256"},{"name":"message","type":"string","internalType":"string"},{"name":"imageURI","type":"string","internalType":"string"},{"name":"timestamp","type":"uint256","internalType":"uint256"}]}],"stateMutability":"view"},{"type":"function","name":"getRequestsIn","inputs":[{"name":"user","type":"address","internalType":"address"}],"outputs":[{"name":"","type":"tuple[]","internalType":"struct SwooshStorage.Request[]","components":[{"name":"id","type":"uint256","internalType":"uint256"},{"name":"creditor","type":"address","internalType":"address"},{"name":"debtors","type":"address[]","internalType":"address[]"},{"name":"paid","type":"address[]","internalType":"address[]"},{"name":"rejected","type":"address[]","internalType":"address[]"},{"name":"amount","type":"uint256","internalType":"uint256"},{"name":"message","type":"string","internalType":"string"},{"name":"imageURI","type":"string","internalType":"string"},{"name":"timestamp","type":"uint256","internalType":"uint256"},{"name":"fulfilled","type":"bool","internalType":"bool"},{"name":"cancelled","type":"bool","internalType":"bool"}]}],"stateMutability":"view"},{"type":"function","name":"getRequestsOut","inputs":[{"name":"user","type":"address","internalType":"address"}],"outputs":[{"name":"","type":"tuple[]","internalType":"struct SwooshStorage.Request[]","components":[{"name":"id","type":"uint256","internalType":"uint256"},{"name":"creditor","type":"address","internalType":"address"},{"name":"debtors","type":"address[]","internalType":"address[]"},{"name":"paid","type":"address[]","internalType":"address[]"},{"name":"rejected","type":"address[]","internalType":"address[]"},{"name":"amount","type":"uint256","internalType":"uint256"},{"name":"message","type":"string","internalType":"string"},{"name":"imageURI","type":"string","internalType":"string"},{"name":"timestamp","type":"uint256","internalType":"uint256"},{"name":"fulfilled","type":"bool","internalType":"bool"},{"name":"cancelled","type":"bool","internalType":"bool"}]}],"stateMutability":"view"},{"type":"function","name":"pay","inputs":[{"name":"to","type":"address","internalType":"address"},{"name":"amount","type":"uint256","internalType":"uint256"},{"name":"message","type":"string","internalType":"string"},{"name":"imageURI","type":"string","internalType":"string"}],"outputs":[],"stateMutability":"nonpayable"},{"type":"function","name":"payments","inputs":[{"name":"","type":"uint256","internalType":"uint256"}],"outputs":[{"name":"id","type":"uint256","internalType":"uint256"},{"name":"creditor","type":"address","internalType":"address"},{"name":"debtor","type":"address","internalType":"address"},{"name":"amount","type":"uint256","internalType":"uint256"},{"name":"message","type":"string","internalType":"string"},{"name":"imageURI","type":"string","internalType":"string"},{"name":"timestamp","type":"uint256","internalType":"uint256"}],"stateMutability":"view"},{"type":"function","name":"paymentsOut","inputs":[{"name":"","type":"address","internalType":"address"},{"name":"","type":"uint256","internalType":"uint256"}],"outputs":[{"name":"","type":"uint256","internalType":"uint256"}],"stateMutability":"view"},{"type":"function","name":"reject","inputs":[{"name":"requestId","type":"uint256","internalType":"uint256"}],"outputs":[],"stateMutability":"nonpayable"},{"type":"function","name":"request","inputs":[{"name":"from","type":"address[]","internalType":"address[]"},{"name":"amount","type":"uint256","internalType":"uint256"},{"name":"message","type":"string","internalType":"string"},{"name":"imageURI","type":"string","internalType":"string"}],"outputs":[],"stateMutability":"nonpayable"},{"type":"function","name":"requests","inputs":[{"name":"","type":"uint256","internalType":"uint256"}],"outputs":[{"name":"id","type":"uint256","internalType":"uint256"},{"name":"creditor","type":"address","internalType":"address"},{"name":"amount","type":"uint256","internalType":"uint256"},{"name":"message","type":"string","internalType":"string"},{"name":"imageURI","type":"string","internalType":"string"},{"name":"timestamp","type":"uint256","internalType":"uint256"},{"name":"fulfilled","type":"bool","internalType":"bool"},{"name":"cancelled","type":"bool","internalType":"bool"}],"stateMutability":"view"},{"type":"function","name":"requestsIn","inputs":[{"name":"","type":"address","internalType":"address"},{"name":"","type":"uint256","internalType":"uint256"}],"outputs":[{"name":"","type":"uint256","internalType":"uint256"}],"stateMutability":"view"},{"type":"function","name":"requestsOut","inputs":[{"name":"","type":"address","internalType":"address"},{"name":"","type":"uint256","internalType":"uint256"}],"outputs":[{"name":"","type":"uint256","internalType":"uint256"}],"stateMutability":"view"},{"type":"function","name":"withdraw","inputs":[{"name":"amount","type":"uint256","internalType":"uint256"}],"outputs":[],"stateMutability":"nonpayable"},{"type":"event","name":"accepted","inputs":[{"name":"debtor","type":"address","indexed":false,"internalType":"address"},{"name":"creditor","type":"address","indexed":false,"internalType":"address"},{"name":"requestId","type":"uint256","indexed":true,"internalType":"uint256"}],"anonymous":false},{"type":"event","name":"deposited","inputs":[{"name":"user","type":"address","indexed":false,"internalType":"address"},{"name":"amount","type":"uint256","indexed":false,"internalType":"uint256"}],"anonymous":false},{"type":"event","name":"newPayment","inputs":[{"name":"creditor","type":"address","indexed":false,"internalType":"address"},{"name":"debtors","type":"address[]","indexed":false,"internalType":"address[]"},{"name":"paymentId","type":"uint256","indexed":true,"internalType":"uint256"}],"anonymous":false},{"type":"event","name":"newRequest","inputs":[{"name":"creditor","type":"address","indexed":false,"internalType":"address"},{"name":"debtors","type":"address[]","indexed":false,"internalType":"address[]"},{"name":"requestId","type":"uint256","indexed":true,"internalType":"uint256"}],"anonymous":false},{"type":"event","name":"nudged","inputs":[{"name":"creditor","type":"address","indexed":false,"internalType":"address"},{"name":"debtor","type":"address","indexed":false,"internalType":"address"}],"anonymous":false},{"type":"event","name":"rejected","inputs":[{"name":"debtor","type":"address","indexed":false,"internalType":"address"},{"name":"creditor","type":"address","indexed":false,"internalType":"address"},{"name":"requestId","type":"uint256","indexed":true,"internalType":"uint256"}],"anonymous":false},{"type":"event","name":"withdrew","inputs":[{"name":"user","type":"address","indexed":false,"internalType":"address"},{"name":"amount","type":"uint256","indexed":false,"internalType":"uint256"}],"anonymous":false}],"bytecode":{"object":"0x608060405234801561001057600080fd5b50613567806100206000396000f3fe6080604052600436106100fe5760003560e01c806381d12c5811610095578063b8adaa1111610064578063b8adaa11146102dd578063d0e30db0146102fd578063d1ca3bdd14610305578063e3d670d714610325578063f8b2cb4f1461035257600080fd5b806381d12c581461023657806387d817891461026a5780639c38c73e1461029d5780639dc6cf8c146102bd57600080fd5b8063486369b8116100d1578063486369b81461019b5780634a941d1e146101c85780637a243be9146101f65780637ade1d5e1461021657600080fd5b806319b05f49146101035780631d6a1711146101255780632e1a7d4d1461015b57806340e58ee51461017b575b600080fd5b34801561010f57600080fd5b5061012361011e366004612d52565b610388565b005b34801561013157600080fd5b50610145610140366004612d87565b610a1b565b6040516101529190612def565b60405180910390f35b34801561016757600080fd5b50610123610176366004612d52565b610d0c565b34801561018757600080fd5b50610123610196366004612d52565b610dc9565b3480156101a757600080fd5b506101bb6101b6366004612d87565b61163c565b6040516101529190612f01565b3480156101d457600080fd5b506101e86101e3366004613029565b611a08565b604051908152602001610152565b34801561020257600080fd5b5061012361021136600461310a565b611a39565b34801561022257600080fd5b50610123610231366004613207565b611d3a565b34801561024257600080fd5b50610256610251366004612d52565b611fa8565b60405161015298979695949392919061324a565b34801561027657600080fd5b5061028a610285366004612d52565b612121565b60405161015297969594939291906132b3565b3480156102a957600080fd5b506101e86102b8366004613029565b61228f565b3480156102c957600080fd5b506101e86102d8366004613029565b6122ab565b3480156102e957600080fd5b506101236102f8366004612d52565b6122c7565b610123612847565b34801561031157600080fd5b506101bb610320366004612d87565b6128a5565b34801561033157600080fd5b506101e8610340366004612d87565b60026020526000908152604090205481565b34801561035e57600080fd5b506101e861036d366004612d87565b6001600160a01b031660009081526002602052604090205490565b6000818154811061039b5761039b613313565b90600052602060002090600a0201600501548060026000336001600160a01b03166001600160a01b031681526020019081526020016000205410156103fb5760405162461bcd60e51b81526004016103f290613329565b60405180910390fd5b6000828154811061040e5761040e613313565b60009182526020918290206040805161016081018252600a9093029091018054835260018101546001600160a01b031683850152600281018054835181870281018701855281815294959294938601939283018282801561049857602002820191906000526020600020905b81546001600160a01b0316815260019091019060200180831161047a575b50505050508152602001600382018054806020026020016040519081016040528092919081815260200182805480156104fa57602002820191906000526020600020905b81546001600160a01b031681526001909101906020018083116104dc575b505050505081526020016004820180548060200260200160405190810160405280929190818152602001828054801561055c57602002820191906000526020600020905b81546001600160a01b0316815260019091019060200180831161053e575b505050505081526020016005820154815260200160068201805461057f90613357565b80601f01602080910402602001604051908101604052809291908181526020018280546105ab90613357565b80156105f85780601f106105cd576101008083540402835291602001916105f8565b820191906000526020600020905b8154815290600101906020018083116105db57829003601f168201915b5050505050815260200160078201805461061190613357565b80601f016020809104026020016040519081016040528092919081815260200182805461063d90613357565b801561068a5780601f1061065f5761010080835404028352916020019161068a565b820191906000526020600020905b81548152906001019060200180831161066d57829003601f168201915b50505091835250506008820154602082015260099091015460ff80821615156040840152610100909104161515606090910152610120810151806106d057508061014001515b156106ed5760405162461bcd60e51b81526004016103f290613391565b600080848154811061070157610701613313565b90600052602060002090600a020190506000805b600283015481101561081657336001600160a01b031683600201828154811061074057610740613313565b6000918252602090912001546001600160a01b03160361080e5760028301546001925082146107d457600283018054610777613313565b6000918252602090912001546002840180546001600160a01b0390921691839081106107a5576107a5613313565b9060005260206000200160006101000a8154816001600160a01b0302191690836001600160a01b031602179055505b826002018054806107e7576107e76133c8565b600082815260209020810160001990810180546001600160a01b0319169055019055610816565b600101610715565b50806108645760405162461bcd60e51b815260206004820152601b60248201527f596f7520617265206e6f7420696e20746869732072657175657374000000000060448201526064016103f2565b6003820180546001810182556000918252602082200180546001600160a01b031916331790555b3360009081526004602052604090205481101561094f57825481036109475733600090815260046020526040902080546108c7906001906133f4565b815481106108d7576108d7613313565b60009182526020808320909101543383526004909152604090912080548390811061090457610904613313565b6000918252602080832090910192909255338152600490915260409020805480610930576109306133c8565b600190038181906000526020600020016000905590555b60010161088b565b50600582015433600090815260026020526040812080549091906109749084906133f4565b9091555050600582015460018301546001600160a01b0316600090815260026020526040812080549091906109aa90849061340d565b909155505060028201546000036109cb5760098201805460ff191660011790555b81546001830154604080516001600160a01b0390921682523360208301527fe41f2178b8a66fda9387478252e2a608a78d5f5a1c0640263f51bc2f9b089cac910160405180910390a25050505050565b6001600160a01b0381166000908152600560209081526040808320805482518185028101850190935280835260609493830182828015610a7a57602002820191906000526020600020905b815481526020019060010190808311610a66575b505050505090506000815167ffffffffffffffff811115610a9d57610a9d613053565b604051908082528060200260200182016040528015610b2057816020015b610b0d6040518060e001604052806000815260200160006001600160a01b0316815260200160006001600160a01b03168152602001600081526020016060815260200160608152602001600081525090565b815260200190600190039081610abb5790505b50905060005b8251811015610d04576001838281518110610b4357610b43613313565b602002602001015181548110610b5b57610b5b613313565b60009182526020918290206040805160e08101825260079093029091018054835260018101546001600160a01b039081169484019490945260028101549093169082015260038201546060820152600482018054919291608084019190610bc190613357565b80601f0160208091040260200160405190810160405280929190818152602001828054610bed90613357565b8015610c3a5780601f10610c0f57610100808354040283529160200191610c3a565b820191906000526020600020905b815481529060010190602001808311610c1d57829003601f168201915b50505050508152602001600582018054610c5390613357565b80601f0160208091040260200160405190810160405280929190818152602001828054610c7f90613357565b8015610ccc5780601f10610ca157610100808354040283529160200191610ccc565b820191906000526020600020905b815481529060010190602001808311610caf57829003601f168201915b50505050508152602001600682015481525050828281518110610cf157610cf1613313565b6020908102919091010152600101610b26565b509392505050565b33600090815260026020526040902054811115610d3b5760405162461bcd60e51b81526004016103f290613329565b3360009081526002602052604081208054839290610d5a9084906133f4565b9091555050604051339082156108fc029083906000818181858888f19350505050158015610d8c573d6000803e3d6000fd5b5060408051338152602081018390527fdce8ef622c146fe081ef97e5c6d283094660af46773617c3ca4aadc02ec8b387910160405180910390a150565b60008181548110610ddc57610ddc613313565b60009182526020918290206040805161016081018252600a9093029091018054835260018101546001600160a01b0316838501526002810180548351818702810187018552818152949592949386019392830182828015610e6657602002820191906000526020600020905b81546001600160a01b03168152600190910190602001808311610e48575b5050505050815260200160038201805480602002602001604051908101604052809291908181526020018280548015610ec857602002820191906000526020600020905b81546001600160a01b03168152600190910190602001808311610eaa575b5050505050815260200160048201805480602002602001604051908101604052809291908181526020018280548015610f2a57602002820191906000526020600020905b81546001600160a01b03168152600190910190602001808311610f0c575b5050505050815260200160058201548152602001600682018054610f4d90613357565b80601f0160208091040260200160405190810160405280929190818152602001828054610f7990613357565b8015610fc65780601f10610f9b57610100808354040283529160200191610fc6565b820191906000526020600020905b815481529060010190602001808311610fa957829003601f168201915b50505050508152602001600782018054610fdf90613357565b80601f016020809104026020016040519081016040528092919081815260200182805461100b90613357565b80156110585780601f1061102d57610100808354040283529160200191611058565b820191906000526020600020905b81548152906001019060200180831161103b57829003601f168201915b50505091835250506008820154602082015260099091015460ff808216151560408401526101009091041615156060909101526101208101518061109e57508061014001515b156110bb5760405162461bcd60e51b81526004016103f290613391565b60008083815481106110cf576110cf613313565b60009182526020918290206040805161016081018252600a9093029091018054835260018101546001600160a01b031683850152600281018054835181870281018701855281815294959294938601939283018282801561115957602002820191906000526020600020905b81546001600160a01b0316815260019091019060200180831161113b575b50505050508152602001600382018054806020026020016040519081016040528092919081815260200182805480156111bb57602002820191906000526020600020905b81546001600160a01b0316815260019091019060200180831161119d575b505050505081526020016004820180548060200260200160405190810160405280929190818152602001828054801561121d57602002820191906000526020600020905b81546001600160a01b031681526001909101906020018083116111ff575b505050505081526020016005820154815260200160068201805461124090613357565b80601f016020809104026020016040519081016040528092919081815260200182805461126c90613357565b80156112b95780601f1061128e576101008083540402835291602001916112b9565b820191906000526020600020905b81548152906001019060200180831161129c57829003601f168201915b505050505081526020016007820180546112d290613357565b80601f01602080910402602001604051908101604052809291908181526020018280546112fe90613357565b801561134b5780601f106113205761010080835404028352916020019161134b565b820191906000526020600020905b81548152906001019060200180831161132e57829003601f168201915b5050509183525050600882015460208083019190915260099092015460ff808216151560408401526101009091041615156060909101528101519091506001600160a01b031633146113ef5760405162461bcd60e51b815260206004820152602760248201527f596f7520617265206e6f74207468652063726561746f72206f662074686973206044820152661c995c5d595cdd60ca1b60648201526084016103f2565b606081015151156114505760405162461bcd60e51b815260206004820152602560248201527f43616e6e6f742063616e63656c20616674657220726563656976696e672070616044820152641e5b595b9d60da1b60648201526084016103f2565b60005b8160400151518110156115665760005b600460008460400151848151811061147d5761147d613313565b60200260200101516001600160a01b03166001600160a01b031681526020019081526020016000208054905081101561155d57825181036115555733600090815260046020526040902080546114d5906001906133f4565b815481106114e5576114e5613313565b60009182526020808320909101543383526004909152604090912080548390811061151257611512613313565b600091825260208083209091019290925533815260049091526040902080548061153e5761153e6133c8565b600190038181906000526020600020016000905590555b600101611463565b50600101611453565b5060005b3360009081526003602052604090205481101561162e57815181036116265733600090815260036020526040902080546115a6906001906133f4565b815481106115b6576115b6613313565b6000918252602080832090910154338352600390915260409091208054839081106115e3576115e3613313565b600091825260208083209091019290925533815260039091526040902080548061160f5761160f6133c8565b600190038181906000526020600020016000905590555b60010161156a565b506001610140909101525050565b6001600160a01b038116600090815260046020908152604080832080548251818502810185019093528083526060949383018282801561169b57602002820191906000526020600020905b815481526020019060010190808311611687575b505050505090506000815167ffffffffffffffff8111156116be576116be613053565b6040519080825280602002602001820160405280156116f757816020015b6116e4612c71565b8152602001906001900390816116dc5790505b50905060005b8251811015610d0457600083828151811061171a5761171a613313565b60200260200101518154811061173257611732613313565b60009182526020918290206040805161016081018252600a9093029091018054835260018101546001600160a01b03168385015260028101805483518187028101870185528181529495929493860193928301828280156117bc57602002820191906000526020600020905b81546001600160a01b0316815260019091019060200180831161179e575b505050505081526020016003820180548060200260200160405190810160405280929190818152602001828054801561181e57602002820191906000526020600020905b81546001600160a01b03168152600190910190602001808311611800575b505050505081526020016004820180548060200260200160405190810160405280929190818152602001828054801561188057602002820191906000526020600020905b81546001600160a01b03168152600190910190602001808311611862575b50505050508152602001600582015481526020016006820180546118a390613357565b80601f01602080910402602001604051908101604052809291908181526020018280546118cf90613357565b801561191c5780601f106118f15761010080835404028352916020019161191c565b820191906000526020600020905b8154815290600101906020018083116118ff57829003601f168201915b5050505050815260200160078201805461193590613357565b80601f016020809104026020016040519081016040528092919081815260200182805461196190613357565b80156119ae5780601f10611983576101008083540402835291602001916119ae565b820191906000526020600020905b81548152906001019060200180831161199157829003601f168201915b50505091835250506008820154602082015260099091015460ff8082161515604084015261010090910416151560609091015282518390839081106119f5576119f5613313565b60209081029190910101526001016116fd565b60056020528160005260406000208181548110611a2457600080fd5b90600052602060002001600091509150505481565b60005b8451811015611af05760006001600160a01b0316858281518110611a6257611a62613313565b60200260200101516001600160a01b03161480611aa95750336001600160a01b0316858281518110611a9657611a96613313565b60200260200101516001600160a01b0316145b15611ae85760405162461bcd60e51b815260206004820152600f60248201526e496e76616c6964206164647265737360881b60448201526064016103f2565b600101611a3c565b5060008054604080516101608101825282815233602080830191825292820189815260608084018190526080840181905260a084018a905260c0840189905260e08401889052426101008501526101208401879052610140840187905260018601875595805282517f290decd9548b62a8d60345a988386fc84ba6bc95484008f6362f93160ef3e563600a870290810191825592517f290decd9548b62a8d60345a988386fc84ba6bc95484008f6362f93160ef3e564840180546001600160a01b0319166001600160a01b039092169190911790559051805195969586959293611c00937f290decd9548b62a8d60345a988386fc84ba6bc95484008f6362f93160ef3e565909101920190612cd8565b5060608201518051611c1c916003840191602090910190612cd8565b5060808201518051611c38916004840191602090910190612cd8565b5060a0820151600582015560c08201516006820190611c579082613471565b5060e08201516007820190611c6c9082613471565b50610100828101516008830155610120830151600990920180546101409094015161ffff1990941692151561ff001916929092179215150291909117905560005b8751811015611d0e5760046000898381518110611ccc57611ccc613313565b6020908102919091018101516001600160a01b031682528181019290925260400160009081208054600181810183559183529290912090910185905501611cad565b505033600090815260036020908152604082208054600181018255908352912001919091555050505050565b336000908152600260205260409020548390811115611d6b5760405162461bcd60e51b81526004016103f290613329565b846001600160a01b0381161580611d8a57506001600160a01b03811633145b15611dc95760405162461bcd60e51b815260206004820152600f60248201526e496e76616c6964206164647265737360881b60448201526064016103f2565b600180546040805160e08101825282815233602082019081526001600160a01b038b8116938301938452606083018b8152608084018b815260a085018b90524260c086015286880188556000979097528351600787027fb10e2d527612073b26eecdfd717e6a320cf44b4afac2b0732d9fcbe2b7fa0cf6810191825593517fb10e2d527612073b26eecdfd717e6a320cf44b4afac2b0732d9fcbe2b7fa0cf7850180549185166001600160a01b031992831617905595517fb10e2d527612073b26eecdfd717e6a320cf44b4afac2b0732d9fcbe2b7fa0cf88501805491909416961695909517909155517fb10e2d527612073b26eecdfd717e6a320cf44b4afac2b0732d9fcbe2b7fa0cf98201559351929390927fb10e2d527612073b26eecdfd717e6a320cf44b4afac2b0732d9fcbe2b7fa0cfa90910190611f0c9082613471565b5060a08201516005820190611f219082613471565b5060c09190910151600690910155336000818152600560209081526040808320805460018101825590845282842001859055928252600290529081208054889290611f6d9084906133f4565b90915550506001600160a01b03871660009081526002602052604081208054889290611f9a90849061340d565b909155505050505050505050565b60008181548110611fb857600080fd5b60009182526020909120600a909102018054600182015460058301546006840180549395506001600160a01b03909216939092909190611ff790613357565b80601f016020809104026020016040519081016040528092919081815260200182805461202390613357565b80156120705780601f1061204557610100808354040283529160200191612070565b820191906000526020600020905b81548152906001019060200180831161205357829003601f168201915b50505050509080600701805461208590613357565b80601f01602080910402602001604051908101604052809291908181526020018280546120b190613357565b80156120fe5780601f106120d3576101008083540402835291602001916120fe565b820191906000526020600020905b8154815290600101906020018083116120e157829003601f168201915b50505050600883015460099093015491929160ff80821692506101009091041688565b6001818154811061213157600080fd5b6000918252602090912060079091020180546001820154600283015460038401546004850180549496506001600160a01b0393841695929093169390929061217890613357565b80601f01602080910402602001604051908101604052809291908181526020018280546121a490613357565b80156121f15780601f106121c6576101008083540402835291602001916121f1565b820191906000526020600020905b8154815290600101906020018083116121d457829003601f168201915b50505050509080600501805461220690613357565b80601f016020809104026020016040519081016040528092919081815260200182805461223290613357565b801561227f5780601f106122545761010080835404028352916020019161227f565b820191906000526020600020905b81548152906001019060200180831161226257829003601f168201915b5050505050908060060154905087565b60046020528160005260406000208181548110611a2457600080fd5b60036020528160005260406000208181548110611a2457600080fd5b600081815481106122da576122da613313565b60009182526020918290206040805161016081018252600a9093029091018054835260018101546001600160a01b031683850152600281018054835181870281018701855281815294959294938601939283018282801561236457602002820191906000526020600020905b81546001600160a01b03168152600190910190602001808311612346575b50505050508152602001600382018054806020026020016040519081016040528092919081815260200182805480156123c657602002820191906000526020600020905b81546001600160a01b031681526001909101906020018083116123a8575b505050505081526020016004820180548060200260200160405190810160405280929190818152602001828054801561242857602002820191906000526020600020905b81546001600160a01b0316815260019091019060200180831161240a575b505050505081526020016005820154815260200160068201805461244b90613357565b80601f016020809104026020016040519081016040528092919081815260200182805461247790613357565b80156124c45780601f10612499576101008083540402835291602001916124c4565b820191906000526020600020905b8154815290600101906020018083116124a757829003601f168201915b505050505081526020016007820180546124dd90613357565b80601f016020809104026020016040519081016040528092919081815260200182805461250990613357565b80156125565780601f1061252b57610100808354040283529160200191612556565b820191906000526020600020905b81548152906001019060200180831161253957829003601f168201915b50505091835250506008820154602082015260099091015460ff808216151560408401526101009091041615156060909101526101208101518061259c57508061014001515b156125b95760405162461bcd60e51b81526004016103f290613391565b60008083815481106125cd576125cd613313565b90600052602060002090600a020190506000805b60028301548110156126e257336001600160a01b031683600201828154811061260c5761260c613313565b6000918252602090912001546001600160a01b0316036126da5760028301546001925082146126a057600283018054612643613313565b6000918252602090912001546002840180546001600160a01b03909216918390811061267157612671613313565b9060005260206000200160006101000a8154816001600160a01b0302191690836001600160a01b031602179055505b826002018054806126b3576126b36133c8565b600082815260209020810160001990810180546001600160a01b03191690550190556126e2565b6001016125e1565b50806127305760405162461bcd60e51b815260206004820152601b60248201527f596f7520617265206e6f7420696e20746869732072657175657374000000000060448201526064016103f2565b60005b336000908152600460205260409020548110156127f757825481036127ef57336000908152600460205260409020805461276f906001906133f4565b8154811061277f5761277f613313565b6000918252602080832090910154338352600490915260409091208054839081106127ac576127ac613313565b60009182526020808320909101929092553381526004909152604090208054806127d8576127d86133c8565b600190038181906000526020600020016000905590555b600101612733565b5081546001830154604080516001600160a01b0390921682523360208301527f5698f320ed70da324b1595f9d131a5a49ca2980acbe7d48b657a211883c75377910160405180910390a250505050565b336000908152600260205260408120805434929061286690849061340d565b9091555050604080513381523460208201527f688e89c1496876b0d792df75671fbe827183660b170bb8983d82511a6a4b7d1b910160405180910390a1565b6001600160a01b038116600090815260036020908152604080832080548251818502810185019093528083526060949383018282801561290457602002820191906000526020600020905b8154815260200190600101908083116128f0575b505050505090506000815167ffffffffffffffff81111561292757612927613053565b60405190808252806020026020018201604052801561296057816020015b61294d612c71565b8152602001906001900390816129455790505b50905060005b8251811015610d0457600083828151811061298357612983613313565b60200260200101518154811061299b5761299b613313565b60009182526020918290206040805161016081018252600a9093029091018054835260018101546001600160a01b0316838501526002810180548351818702810187018552818152949592949386019392830182828015612a2557602002820191906000526020600020905b81546001600160a01b03168152600190910190602001808311612a07575b5050505050815260200160038201805480602002602001604051908101604052809291908181526020018280548015612a8757602002820191906000526020600020905b81546001600160a01b03168152600190910190602001808311612a69575b5050505050815260200160048201805480602002602001604051908101604052809291908181526020018280548015612ae957602002820191906000526020600020905b81546001600160a01b03168152600190910190602001808311612acb575b5050505050815260200160058201548152602001600682018054612b0c90613357565b80601f0160208091040260200160405190810160405280929190818152602001828054612b3890613357565b8015612b855780601f10612b5a57610100808354040283529160200191612b85565b820191906000526020600020905b815481529060010190602001808311612b6857829003601f168201915b50505050508152602001600782018054612b9e90613357565b80601f0160208091040260200160405190810160405280929190818152602001828054612bca90613357565b8015612c175780601f10612bec57610100808354040283529160200191612c17565b820191906000526020600020905b815481529060010190602001808311612bfa57829003601f168201915b50505091835250506008820154602082015260099091015460ff808216151560408401526101009091041615156060909101528251839083908110612c5e57612c5e613313565b6020908102919091010152600101612966565b6040518061016001604052806000815260200160006001600160a01b03168152602001606081526020016060815260200160608152602001600081526020016060815260200160608152602001600081526020016000151581526020016000151581525090565b828054828255906000526020600020908101928215612d2d579160200282015b82811115612d2d57825182546001600160a01b0319166001600160a01b03909116178255602090920191600190910190612cf8565b50612d39929150612d3d565b5090565b5b80821115612d395760008155600101612d3e565b600060208284031215612d6457600080fd5b5035919050565b80356001600160a01b0381168114612d8257600080fd5b919050565b600060208284031215612d9957600080fd5b612da282612d6b565b9392505050565b6000815180845260005b81811015612dcf57602081850181015186830182015201612db3565b506000602082860101526020601f19601f83011685010191505092915050565b600060208083018184528085518083526040925060408601915060408160051b87010184880160005b83811015612eae57888303603f19018552815180518452878101516001600160a01b03908116898601528782015116878501526060808201519085015260808082015160e08287018190529190612e7183880182612da9565b9250505060a08083015186830382880152612e8c8382612da9565b60c0948501519790940196909652505094870194925090860190600101612e18565b509098975050505050505050565b60008151808452602080850194506020840160005b83811015612ef65781516001600160a01b031687529582019590820190600101612ed1565b509495945050505050565b600060208083018184528085518083526040925060408601915060408160051b87010184880160005b83811015612eae57603f19898403018552815180518452878101516001600160a01b0316888501528681015161016088860181905290612f6c82870182612ebc565b91505060608083015186830382880152612f868382612ebc565b9250505060808083015186830382880152612fa18382612ebc565b9250505060a080830151818701525060c08083015186830382880152612fc78382612da9565b9250505060e08083015186830382880152612fe28382612da9565b92505050610100808301518187015250610120808301516130068288018215159052565b505061014091820151151594909101939093529386019390860190600101612f2a565b6000806040838503121561303c57600080fd5b61304583612d6b565b946020939093013593505050565b634e487b7160e01b600052604160045260246000fd5b604051601f8201601f1916810167ffffffffffffffff8111828210171561309257613092613053565b604052919050565b600082601f8301126130ab57600080fd5b813567ffffffffffffffff8111156130c5576130c5613053565b6130d8601f8201601f1916602001613069565b8181528460208386010111156130ed57600080fd5b816020850160208301376000918101602001919091529392505050565b6000806000806080858703121561312057600080fd5b843567ffffffffffffffff8082111561313857600080fd5b818701915087601f83011261314c57600080fd5b813560208282111561316057613160613053565b8160051b61316f828201613069565b928352848101820192828101908c85111561318957600080fd5b958301955b848710156131ae5761319f87612d6b565b8252958301959083019061318e565b9950505088013595505060408701359150808211156131cc57600080fd5b6131d88883890161309a565b935060608701359150808211156131ee57600080fd5b506131fb8782880161309a565b91505092959194509250565b6000806000806080858703121561321d57600080fd5b61322685612d6b565b935060208501359250604085013567ffffffffffffffff808211156131cc57600080fd5b8881526001600160a01b0388166020820152604081018790526101006060820181905260009061327c83820189612da9565b905082810360808401526132908188612da9565b60a0840196909652505091151560c0830152151560e09091015295945050505050565b8781526001600160a01b038781166020830152861660408201526060810185905260e0608082018190526000906132ec90830186612da9565b82810360a08401526132fe8186612da9565b9150508260c083015298975050505050505050565b634e487b7160e01b600052603260045260246000fd5b602080825260149082015273496e73756666696369656e742062616c616e636560601b604082015260600190565b600181811c9082168061336b57607f821691505b60208210810361338b57634e487b7160e01b600052602260045260246000fd5b50919050565b60208082526019908201527f5265717565737420616c72656164792070726f63657373656400000000000000604082015260600190565b634e487b7160e01b600052603160045260246000fd5b634e487b7160e01b600052601160045260246000fd5b81810381811115613407576134076133de565b92915050565b80820180821115613407576134076133de565b601f82111561346c576000816000526020600020601f850160051c810160208610156134495750805b601f850160051c820191505b8181101561346857828155600101613455565b5050505b505050565b815167ffffffffffffffff81111561348b5761348b613053565b61349f816134998454613357565b84613420565b602080601f8311600181146134d457600084156134bc5750858301515b600019600386901b1c1916600185901b178555613468565b600085815260208120601f198616915b82811015613503578886015182559484019460019091019084016134e4565b50858210156135215787850151600019600388901b60f8161c191681555b5050505050600190811b0190555056fea264697066735822122026efbc7861ebdc4e0d76636164a13bddcf0cd4a3283765380ce9d1293f5090c064736f6c63430008170033","linkReferences":{}},"methodIdentifiers":{"accept(uint256)":"19b05f49","balance(address)":"e3d670d7","cancel(uint256)":"40e58ee5","deposit()":"d0e30db0","getBalance(address)":"f8b2cb4f","getPayments(address)":"1d6a1711","getRequestsIn(address)":"486369b8","getRequestsOut(address)":"d1ca3bdd","pay(address,uint256,string,string)":"7ade1d5e","payments(uint256)":"87d81789","paymentsOut(address,uint256)":"4a941d1e","reject(uint256)":"b8adaa11","request(address[],uint256,string,string)":"7a243be9","requests(uint256)":"81d12c58","requestsIn(address,uint256)":"9c38c73e","requestsOut(address,uint256)":"9dc6cf8c","withdraw(uint256)":"2e1a7d4d"},"id":23}