{"abi":[{"type":"constructor","inputs":[{"name":"_USDC","type":"address","internalType":"address"}],"stateMutability":"nonpayable"},{"type":"function","name":"accept","inputs":[{"name":"requestId","type":"uint256","internalType":"uint256"}],"outputs":[],"stateMutability":"nonpayable"},{"type":"function","name":"acceptAll","inputs":[],"outputs":[],"stateMutability":"nonpayable"},{"type":"function","name":"allowance","inputs":[{"name":"owner","type":"address","internalType":"address"},{"name":"spender","type":"address","internalType":"address"}],"outputs":[{"name":"","type":"uint256","internalType":"uint256"}],"stateMutability":"view"},{"type":"function","name":"approve","inputs":[{"name":"spender","type":"address","internalType":"address"},{"name":"value","type":"uint256","internalType":"uint256"}],"outputs":[{"name":"","type":"bool","internalType":"bool"}],"stateMutability":"nonpayable"},{"type":"function","name":"balance","inputs":[{"name":"","type":"address","internalType":"address"}],"outputs":[{"name":"","type":"uint256","internalType":"uint256"}],"stateMutability":"view"},{"type":"function","name":"balanceOf","inputs":[{"name":"account","type":"address","internalType":"address"}],"outputs":[{"name":"","type":"uint256","internalType":"uint256"}],"stateMutability":"view"},{"type":"function","name":"cancel","inputs":[{"name":"requestId","type":"uint256","internalType":"uint256"}],"outputs":[],"stateMutability":"nonpayable"},{"type":"function","name":"decimals","inputs":[],"outputs":[{"name":"","type":"uint8","internalType":"uint8"}],"stateMutability":"view"},{"type":"function","name":"decline","inputs":[{"name":"requestId","type":"uint256","internalType":"uint256"}],"outputs":[],"stateMutability":"nonpayable"},{"type":"function","name":"deposit","inputs":[{"name":"amount","type":"uint256","internalType":"uint256"}],"outputs":[],"stateMutability":"payable"},{"type":"function","name":"getBalance","inputs":[{"name":"user","type":"address","internalType":"address"}],"outputs":[{"name":"","type":"uint256","internalType":"uint256"}],"stateMutability":"view"},{"type":"function","name":"getPayments","inputs":[{"name":"user","type":"address","internalType":"address"}],"outputs":[{"name":"","type":"tuple[]","internalType":"struct SwooshStorage.Payment[]","components":[{"name":"id","type":"uint256","internalType":"uint256"},{"name":"creditor","type":"address","internalType":"address"},{"name":"debtor","type":"address","internalType":"address"},{"name":"amount","type":"uint256","internalType":"uint256"},{"name":"message","type":"string","internalType":"string"},{"name":"imageURI","type":"string","internalType":"string"},{"name":"timestamp","type":"uint256","internalType":"uint256"}]}],"stateMutability":"view"},{"type":"function","name":"getRequestsIn","inputs":[{"name":"user","type":"address","internalType":"address"}],"outputs":[{"name":"","type":"tuple[]","internalType":"struct SwooshStorage.Request[]","components":[{"name":"id","type":"uint256","internalType":"uint256"},{"name":"creditor","type":"address","internalType":"address"},{"name":"debtors","type":"address[]","internalType":"address[]"},{"name":"paid","type":"address[]","internalType":"address[]"},{"name":"declined","type":"address[]","internalType":"address[]"},{"name":"amount","type":"uint256","internalType":"uint256"},{"name":"message","type":"string","internalType":"string"},{"name":"imageURI","type":"string","internalType":"string"},{"name":"timestamp","type":"uint256","internalType":"uint256"},{"name":"fulfilled","type":"bool","internalType":"bool"},{"name":"cancelled","type":"bool","internalType":"bool"}]}],"stateMutability":"view"},{"type":"function","name":"getRequestsOut","inputs":[{"name":"user","type":"address","internalType":"address"}],"outputs":[{"name":"","type":"tuple[]","internalType":"struct SwooshStorage.Request[]","components":[{"name":"id","type":"uint256","internalType":"uint256"},{"name":"creditor","type":"address","internalType":"address"},{"name":"debtors","type":"address[]","internalType":"address[]"},{"name":"paid","type":"address[]","internalType":"address[]"},{"name":"declined","type":"address[]","internalType":"address[]"},{"name":"amount","type":"uint256","internalType":"uint256"},{"name":"message","type":"string","internalType":"string"},{"name":"imageURI","type":"string","internalType":"string"},{"name":"timestamp","type":"uint256","internalType":"uint256"},{"name":"fulfilled","type":"bool","internalType":"bool"},{"name":"cancelled","type":"bool","internalType":"bool"}]}],"stateMutability":"view"},{"type":"function","name":"name","inputs":[],"outputs":[{"name":"","type":"string","internalType":"string"}],"stateMutability":"view"},{"type":"function","name":"nudge","inputs":[{"name":"debtor","type":"address","internalType":"address"}],"outputs":[],"stateMutability":"nonpayable"},{"type":"function","name":"pay","inputs":[{"name":"to","type":"address","internalType":"address"},{"name":"amount","type":"uint256","internalType":"uint256"},{"name":"message","type":"string","internalType":"string"},{"name":"imageURI","type":"string","internalType":"string"}],"outputs":[],"stateMutability":"nonpayable"},{"type":"function","name":"payments","inputs":[{"name":"","type":"uint256","internalType":"uint256"}],"outputs":[{"name":"id","type":"uint256","internalType":"uint256"},{"name":"creditor","type":"address","internalType":"address"},{"name":"debtor","type":"address","internalType":"address"},{"name":"amount","type":"uint256","internalType":"uint256"},{"name":"message","type":"string","internalType":"string"},{"name":"imageURI","type":"string","internalType":"string"},{"name":"timestamp","type":"uint256","internalType":"uint256"}],"stateMutability":"view"},{"type":"function","name":"paymentsOut","inputs":[{"name":"","type":"address","internalType":"address"},{"name":"","type":"uint256","internalType":"uint256"}],"outputs":[{"name":"","type":"uint256","internalType":"uint256"}],"stateMutability":"view"},{"type":"function","name":"request","inputs":[{"name":"from","type":"address[]","internalType":"address[]"},{"name":"amount","type":"uint256","internalType":"uint256"},{"name":"message","type":"string","internalType":"string"},{"name":"imageURI","type":"string","internalType":"string"}],"outputs":[],"stateMutability":"nonpayable"},{"type":"function","name":"requests","inputs":[{"name":"","type":"uint256","internalType":"uint256"}],"outputs":[{"name":"id","type":"uint256","internalType":"uint256"},{"name":"creditor","type":"address","internalType":"address"},{"name":"amount","type":"uint256","internalType":"uint256"},{"name":"message","type":"string","internalType":"string"},{"name":"imageURI","type":"string","internalType":"string"},{"name":"timestamp","type":"uint256","internalType":"uint256"},{"name":"fulfilled","type":"bool","internalType":"bool"},{"name":"cancelled","type":"bool","internalType":"bool"}],"stateMutability":"view"},{"type":"function","name":"requestsIn","inputs":[{"name":"","type":"address","internalType":"address"},{"name":"","type":"uint256","internalType":"uint256"}],"outputs":[{"name":"","type":"uint256","internalType":"uint256"}],"stateMutability":"view"},{"type":"function","name":"requestsOut","inputs":[{"name":"","type":"address","internalType":"address"},{"name":"","type":"uint256","internalType":"uint256"}],"outputs":[{"name":"","type":"uint256","internalType":"uint256"}],"stateMutability":"view"},{"type":"function","name":"symbol","inputs":[],"outputs":[{"name":"","type":"string","internalType":"string"}],"stateMutability":"view"},{"type":"function","name":"totalSupply","inputs":[],"outputs":[{"name":"","type":"uint256","internalType":"uint256"}],"stateMutability":"view"},{"type":"function","name":"transfer","inputs":[{"name":"to","type":"address","internalType":"address"},{"name":"value","type":"uint256","internalType":"uint256"}],"outputs":[{"name":"","type":"bool","internalType":"bool"}],"stateMutability":"nonpayable"},{"type":"function","name":"transferFrom","inputs":[{"name":"from","type":"address","internalType":"address"},{"name":"to","type":"address","internalType":"address"},{"name":"value","type":"uint256","internalType":"uint256"}],"outputs":[{"name":"","type":"bool","internalType":"bool"}],"stateMutability":"nonpayable"},{"type":"function","name":"withdraw","inputs":[{"name":"amount","type":"uint256","internalType":"uint256"}],"outputs":[],"stateMutability":"nonpayable"},{"type":"event","name":"Approval","inputs":[{"name":"owner","type":"address","indexed":true,"internalType":"address"},{"name":"spender","type":"address","indexed":true,"internalType":"address"},{"name":"value","type":"uint256","indexed":false,"internalType":"uint256"}],"anonymous":false},{"type":"event","name":"Transfer","inputs":[{"name":"from","type":"address","indexed":true,"internalType":"address"},{"name":"to","type":"address","indexed":true,"internalType":"address"},{"name":"value","type":"uint256","indexed":false,"internalType":"uint256"}],"anonymous":false},{"type":"event","name":"accepted","inputs":[{"name":"debtor","type":"address","indexed":false,"internalType":"address"},{"name":"creditor","type":"address","indexed":false,"internalType":"address"},{"name":"requestId","type":"uint256","indexed":true,"internalType":"uint256"}],"anonymous":false},{"type":"event","name":"declined","inputs":[{"name":"debtor","type":"address","indexed":false,"internalType":"address"},{"name":"creditor","type":"address","indexed":false,"internalType":"address"},{"name":"requestId","type":"uint256","indexed":true,"internalType":"uint256"}],"anonymous":false},{"type":"event","name":"deposited","inputs":[{"name":"user","type":"address","indexed":false,"internalType":"address"},{"name":"amount","type":"uint256","indexed":false,"internalType":"uint256"}],"anonymous":false},{"type":"event","name":"newPayment","inputs":[{"name":"creditor","type":"address","indexed":false,"internalType":"address"},{"name":"debtors","type":"address[]","indexed":false,"internalType":"address[]"},{"name":"paymentId","type":"uint256","indexed":true,"internalType":"uint256"}],"anonymous":false},{"type":"event","name":"newRequest","inputs":[{"name":"creditor","type":"address","indexed":false,"internalType":"address"},{"name":"debtors","type":"address[]","indexed":false,"internalType":"address[]"},{"name":"requestId","type":"uint256","indexed":true,"internalType":"uint256"}],"anonymous":false},{"type":"event","name":"nudged","inputs":[{"name":"creditor","type":"address","indexed":false,"internalType":"address"},{"name":"debtor","type":"address","indexed":false,"internalType":"address"}],"anonymous":false},{"type":"event","name":"withdrew","inputs":[{"name":"user","type":"address","indexed":false,"internalType":"address"},{"name":"amount","type":"uint256","indexed":false,"internalType":"uint256"}],"anonymous":false},{"type":"error","name":"ERC20InsufficientAllowance","inputs":[{"name":"spender","type":"address","internalType":"address"},{"name":"allowance","type":"uint256","internalType":"uint256"},{"name":"needed","type":"uint256","internalType":"uint256"}]},{"type":"error","name":"ERC20InsufficientBalance","inputs":[{"name":"sender","type":"address","internalType":"address"},{"name":"balance","type":"uint256","internalType":"uint256"},{"name":"needed","type":"uint256","internalType":"uint256"}]},{"type":"error","name":"ERC20InvalidApprover","inputs":[{"name":"approver","type":"address","internalType":"address"}]},{"type":"error","name":"ERC20InvalidReceiver","inputs":[{"name":"receiver","type":"address","internalType":"address"}]},{"type":"error","name":"ERC20InvalidSender","inputs":[{"name":"sender","type":"address","internalType":"address"}]},{"type":"error","name":"ERC20InvalidSpender","inputs":[{"name":"spender","type":"address","internalType":"address"}]}],"bytecode":{"object":"0x60806040523480156200001157600080fd5b5060405162004370380380620043708339810160408190526200003491620000b9565b604051806040016040528060068152602001650a6eededee6d60d31b8152506040518060400160405280600381526020016253574f60e81b815250816009908162000080919062000192565b50600a6200008f828262000192565b5050600b80546001600160a01b0319166001600160a01b039390931692909217909155506200025e565b600060208284031215620000cc57600080fd5b81516001600160a01b0381168114620000e457600080fd5b9392505050565b634e487b7160e01b600052604160045260246000fd5b600181811c908216806200011657607f821691505b6020821081036200013757634e487b7160e01b600052602260045260246000fd5b50919050565b601f8211156200018d576000816000526020600020601f850160051c81016020861015620001685750805b601f850160051c820191505b81811015620001895782815560010162000174565b5050505b505050565b81516001600160401b03811115620001ae57620001ae620000eb565b620001c681620001bf845462000101565b846200013d565b602080601f831160018114620001fe5760008415620001e55750858301515b600019600386901b1c1916600185901b17855562000189565b600085815260208120601f198616915b828110156200022f578886015182559484019460019091019084016200020e565b50858210156200024e5787850151600019600388901b60f8161c191681555b5050505050600190811b01905550565b614102806200026e6000396000f3fe6080604052600436106101b75760003560e01c80637ade1d5e116100ec578063a862c8ec1161008a578063d1ca3bdd11610064578063d1ca3bdd14610508578063dd62ed3e14610528578063e3d670d71461056e578063f8b2cb4f1461059b57600080fd5b8063a862c8ec146104b5578063a9059cbb146104d5578063b6b55f25146104f557600080fd5b806395d89b41116100c657806395d89b41146104405780639c38c73e146104555780639dc6cf8c14610475578063a0355f4e1461049557600080fd5b80637ade1d5e146103b957806381d12c58146103d957806387d817891461040d57600080fd5b80632e1a7d4d11610159578063486369b811610133578063486369b8146103165780634a941d1e1461034357806370a08231146103635780637a243be91461039957600080fd5b80632e1a7d4d146102ba578063313ce567146102da57806340e58ee5146102f657600080fd5b806318160ddd1161019557806318160ddd1461022e57806319b05f491461024d5780631d6a17111461026d57806323b872dd1461029a57600080fd5b806306fdde03146101bc578063095ea7b3146101e75780630ea1cbf614610217575b600080fd5b3480156101c857600080fd5b506101d16105d1565b6040516101de9190613896565b60405180910390f35b3480156101f357600080fd5b506102076102023660046138cc565b610663565b60405190151581526020016101de565b34801561022357600080fd5b5061022c61067d565b005b34801561023a57600080fd5b506008545b6040519081526020016101de565b34801561025957600080fd5b5061022c6102683660046138f6565b6107b3565b34801561027957600080fd5b5061028d61028836600461390f565b610e40565b6040516101de919061392a565b3480156102a657600080fd5b506102076102b53660046139f7565b611131565b3480156102c657600080fd5b5061022c6102d53660046138f6565b611155565b3480156102e657600080fd5b50604051601281526020016101de565b34801561030257600080fd5b5061022c6103113660046138f6565b61125b565b34801561032257600080fd5b5061033661033136600461390f565b611c95565b6040516101de9190613a78565b34801561034f57600080fd5b5061023f61035e3660046138cc565b612061565b34801561036f57600080fd5b5061023f61037e36600461390f565b6001600160a01b031660009081526006602052604090205490565b3480156103a557600080fd5b5061022c6103b4366004613c57565b612092565b3480156103c557600080fd5b5061022c6103d4366004613d54565b612393565b3480156103e557600080fd5b506103f96103f43660046138f6565b612601565b6040516101de989796959493929190613d97565b34801561041957600080fd5b5061042d6104283660046138f6565b61277a565b6040516101de9796959493929190613e00565b34801561044c57600080fd5b506101d16128e8565b34801561046157600080fd5b5061023f6104703660046138cc565b6128f7565b34801561048157600080fd5b5061023f6104903660046138cc565b612913565b3480156104a157600080fd5b5061022c6104b03660046138f6565b61292f565b3480156104c157600080fd5b5061022c6104d036600461390f565b612f22565b3480156104e157600080fd5b506102076104f03660046138cc565b612f60565b61022c6105033660046138f6565b612f6e565b34801561051457600080fd5b5061033661052336600461390f565b6130ba565b34801561053457600080fd5b5061023f610543366004613e60565b6001600160a01b03918216600090815260076020908152604080832093909416825291909152205490565b34801561057a57600080fd5b5061023f61058936600461390f565b60026020526000908152604090205481565b3480156105a757600080fd5b5061023f6105b636600461390f565b6001600160a01b031660009081526002602052604090205490565b6060600980546105e090613e93565b80601f016020809104026020016040519081016040528092919081815260200182805461060c90613e93565b80156106595780601f1061062e57610100808354040283529160200191610659565b820191906000526020600020905b81548152906001019060200180831161063c57829003601f168201915b5050505050905090565b600033610671818585613486565b60019150505b92915050565b336000908152600460209081526040808320805482518185028101850190935280835291929091908301828280156106d457602002820191906000526020600020905b8154815260200190600101908083116106c0575b50505050509050600080600090505b825181101561073f57600083828151811061070057610700613ecd565b60200260200101518154811061071857610718613ecd565b90600052602060002090600a020160050154826107359190613ef9565b91506001016106e3565b50336000908152600260205260409020548111156107785760405162461bcd60e51b815260040161076f90613f0c565b60405180910390fd5b60005b82518110156107ae576107a683828151811061079957610799613ecd565b60200260200101516107b3565b60010161077b565b505050565b600081815481106107c6576107c6613ecd565b90600052602060002090600a0201600501548060026000336001600160a01b03166001600160a01b0316815260200190815260200160002054101561081d5760405162461bcd60e51b815260040161076f90613f0c565b6000828154811061083057610830613ecd565b60009182526020918290206040805161016081018252600a9093029091018054835260018101546001600160a01b03168385015260028101805483518187028101870185528181529495929493860193928301828280156108ba57602002820191906000526020600020905b81546001600160a01b0316815260019091019060200180831161089c575b505050505081526020016003820180548060200260200160405190810160405280929190818152602001828054801561091c57602002820191906000526020600020905b81546001600160a01b031681526001909101906020018083116108fe575b505050505081526020016004820180548060200260200160405190810160405280929190818152602001828054801561097e57602002820191906000526020600020905b81546001600160a01b03168152600190910190602001808311610960575b50505050508152602001600582015481526020016006820180546109a190613e93565b80601f01602080910402602001604051908101604052809291908181526020018280546109cd90613e93565b8015610a1a5780601f106109ef57610100808354040283529160200191610a1a565b820191906000526020600020905b8154815290600101906020018083116109fd57829003601f168201915b50505050508152602001600782018054610a3390613e93565b80601f0160208091040260200160405190810160405280929190818152602001828054610a5f90613e93565b8015610aac5780601f10610a8157610100808354040283529160200191610aac565b820191906000526020600020905b815481529060010190602001808311610a8f57829003601f168201915b50505091835250506008820154602082015260099091015460ff8082161515604084015261010090910416151560609091015261012081015180610af257508061014001515b15610b0f5760405162461bcd60e51b815260040161076f90613f3a565b6000808481548110610b2357610b23613ecd565b90600052602060002090600a020190506000805b6002830154811015610c3b57336001600160a01b0316836002018281548110610b6257610b62613ecd565b6000918252602090912001546001600160a01b031603610c335760028301805460019350610b91908490613f71565b81548110610ba157610ba1613ecd565b6000918252602090912001546002840180546001600160a01b039092169183908110610bcf57610bcf613ecd565b9060005260206000200160006101000a8154816001600160a01b0302191690836001600160a01b0316021790555082600201805480610c1057610c10613f84565b600082815260209020810160001990810180546001600160a01b03191690550190555b600101610b37565b5080610c895760405162461bcd60e51b815260206004820152601b60248201527f596f7520617265206e6f7420696e207468697320726571756573740000000000604482015260640161076f565b6003820180546001810182556000918252602082200180546001600160a01b031916331790555b33600090815260046020526040902054811015610d745782548103610d6c573360009081526004602052604090208054610cec90600190613f71565b81548110610cfc57610cfc613ecd565b600091825260208083209091015433835260049091526040909120805483908110610d2957610d29613ecd565b6000918252602080832090910192909255338152600490915260409020805480610d5557610d55613f84565b600190038181906000526020600020016000905590555b600101610cb0565b5060058201543360009081526002602052604081208054909190610d99908490613f71565b9091555050600582015460018301546001600160a01b031660009081526002602052604081208054909190610dcf908490613ef9565b90915550506002820154600003610df05760098201805460ff191660011790555b81546001830154604080516001600160a01b0390921682523360208301527fe41f2178b8a66fda9387478252e2a608a78d5f5a1c0640263f51bc2f9b089cac910160405180910390a25050505050565b6001600160a01b0381166000908152600560209081526040808320805482518185028101850190935280835260609493830182828015610e9f57602002820191906000526020600020905b815481526020019060010190808311610e8b575b505050505090506000815167ffffffffffffffff811115610ec257610ec2613ba0565b604051908082528060200260200182016040528015610f4557816020015b610f326040518060e001604052806000815260200160006001600160a01b0316815260200160006001600160a01b03168152602001600081526020016060815260200160608152602001600081525090565b815260200190600190039081610ee05790505b50905060005b8251811015611129576001838281518110610f6857610f68613ecd565b602002602001015181548110610f8057610f80613ecd565b60009182526020918290206040805160e08101825260079093029091018054835260018101546001600160a01b039081169484019490945260028101549093169082015260038201546060820152600482018054919291608084019190610fe690613e93565b80601f016020809104026020016040519081016040528092919081815260200182805461101290613e93565b801561105f5780601f106110345761010080835404028352916020019161105f565b820191906000526020600020905b81548152906001019060200180831161104257829003601f168201915b5050505050815260200160058201805461107890613e93565b80601f01602080910402602001604051908101604052809291908181526020018280546110a490613e93565b80156110f15780601f106110c6576101008083540402835291602001916110f1565b820191906000526020600020905b8154815290600101906020018083116110d457829003601f168201915b5050505050815260200160068201548152505082828151811061111657611116613ecd565b6020908102919091010152600101610f4b565b509392505050565b60003361113f858285613493565b61114a858585613511565b506001949350505050565b336000908152600260205260409020548111156111845760405162461bcd60e51b815260040161076f90613f0c565b33600090815260026020526040812080548392906111a3908490613f71565b9091555050600b5460405163a9059cbb60e01b8152336004820152602481018390526001600160a01b039091169063a9059cbb906044016020604051808303816000875af11580156111f9573d6000803e3d6000fd5b505050506040513d601f19601f8201168201806040525081019061121d9190613f9a565b5060408051338152602081018390527fdce8ef622c146fe081ef97e5c6d283094660af46773617c3ca4aadc02ec8b38791015b60405180910390a150565b6000818154811061126e5761126e613ecd565b60009182526020918290206040805161016081018252600a9093029091018054835260018101546001600160a01b03168385015260028101805483518187028101870185528181529495929493860193928301828280156112f857602002820191906000526020600020905b81546001600160a01b031681526001909101906020018083116112da575b505050505081526020016003820180548060200260200160405190810160405280929190818152602001828054801561135a57602002820191906000526020600020905b81546001600160a01b0316815260019091019060200180831161133c575b50505050508152602001600482018054806020026020016040519081016040528092919081815260200182805480156113bc57602002820191906000526020600020905b81546001600160a01b0316815260019091019060200180831161139e575b50505050508152602001600582015481526020016006820180546113df90613e93565b80601f016020809104026020016040519081016040528092919081815260200182805461140b90613e93565b80156114585780601f1061142d57610100808354040283529160200191611458565b820191906000526020600020905b81548152906001019060200180831161143b57829003601f168201915b5050505050815260200160078201805461147190613e93565b80601f016020809104026020016040519081016040528092919081815260200182805461149d90613e93565b80156114ea5780601f106114bf576101008083540402835291602001916114ea565b820191906000526020600020905b8154815290600101906020018083116114cd57829003601f168201915b50505091835250506008820154602082015260099091015460ff808216151560408401526101009091041615156060909101526101208101518061153057508061014001515b1561154d5760405162461bcd60e51b815260040161076f90613f3a565b600080838154811061156157611561613ecd565b60009182526020918290206040805161016081018252600a9093029091018054835260018101546001600160a01b03168385015260028101805483518187028101870185528181529495929493860193928301828280156115eb57602002820191906000526020600020905b81546001600160a01b031681526001909101906020018083116115cd575b505050505081526020016003820180548060200260200160405190810160405280929190818152602001828054801561164d57602002820191906000526020600020905b81546001600160a01b0316815260019091019060200180831161162f575b50505050508152602001600482018054806020026020016040519081016040528092919081815260200182805480156116af57602002820191906000526020600020905b81546001600160a01b03168152600190910190602001808311611691575b50505050508152602001600582015481526020016006820180546116d290613e93565b80601f01602080910402602001604051908101604052809291908181526020018280546116fe90613e93565b801561174b5780601f106117205761010080835404028352916020019161174b565b820191906000526020600020905b81548152906001019060200180831161172e57829003601f168201915b5050505050815260200160078201805461176490613e93565b80601f016020809104026020016040519081016040528092919081815260200182805461179090613e93565b80156117dd5780601f106117b2576101008083540402835291602001916117dd565b820191906000526020600020905b8154815290600101906020018083116117c057829003601f168201915b5050509183525050600882015460208083019190915260099092015460ff808216151560408401526101009091041615156060909101528101519091506001600160a01b031633146118815760405162461bcd60e51b815260206004820152602760248201527f596f7520617265206e6f74207468652063726561746f72206f662074686973206044820152661c995c5d595cdd60ca1b606482015260840161076f565b606081015151156118e25760405162461bcd60e51b815260206004820152602560248201527f43616e6e6f742063616e63656c20616674657220726563656976696e672070616044820152641e5b595b9d60da1b606482015260840161076f565b60005b816040015151811015611b2f5760005b600460008460400151848151811061190f5761190f613ecd565b60200260200101516001600160a01b03166001600160a01b0316815260200190815260200160002080549050811015611b265784600460008560400151858151811061195d5761195d613ecd565b60200260200101516001600160a01b03166001600160a01b03168152602001908152602001600020828154811061199657611996613ecd565b906000526020600020015403611b1e5760046000846040015184815181106119c0576119c0613ecd565b60200260200101516001600160a01b03166001600160a01b0316815260200190815260200160002060016004600086604001518681518110611a0457611a04613ecd565b60200260200101516001600160a01b03166001600160a01b0316815260200190815260200160002080549050611a3a9190613f71565b81548110611a4a57611a4a613ecd565b90600052602060002001546004600085604001518581518110611a6f57611a6f613ecd565b60200260200101516001600160a01b03166001600160a01b031681526020019081526020016000208281548110611aa857611aa8613ecd565b90600052602060002001819055506004600084604001518481518110611ad057611ad0613ecd565b60200260200101516001600160a01b03166001600160a01b03168152602001908152602001600020805480611b0757611b07613f84565b600190038181906000526020600020016000905590555b6001016118f5565b506001016118e5565b5060005b6020808301516001600160a01b0316600090815260039091526040902054811015611c8757836003600084602001516001600160a01b03166001600160a01b031681526020019081526020016000208281548110611b9357611b93613ecd565b906000526020600020015403611c7f57602080830180516001600160a01b039081166000908152600390935260408084209251909116835290912054611bdb90600190613f71565b81548110611beb57611beb613ecd565b90600052602060002001546003600084602001516001600160a01b03166001600160a01b031681526020019081526020016000208281548110611c3057611c30613ecd565b6000918252602080832090910192909255838201516001600160a01b03168152600390915260409020805480611c6857611c68613f84565b600190038181906000526020600020016000905590555b600101611b33565b506001610140909101525050565b6001600160a01b0381166000908152600460209081526040808320805482518185028101850190935280835260609493830182828015611cf457602002820191906000526020600020905b815481526020019060010190808311611ce0575b505050505090506000815167ffffffffffffffff811115611d1757611d17613ba0565b604051908082528060200260200182016040528015611d5057816020015b611d3d61376f565b815260200190600190039081611d355790505b50905060005b8251811015611129576000838281518110611d7357611d73613ecd565b602002602001015181548110611d8b57611d8b613ecd565b60009182526020918290206040805161016081018252600a9093029091018054835260018101546001600160a01b0316838501526002810180548351818702810187018552818152949592949386019392830182828015611e1557602002820191906000526020600020905b81546001600160a01b03168152600190910190602001808311611df7575b5050505050815260200160038201805480602002602001604051908101604052809291908181526020018280548015611e7757602002820191906000526020600020905b81546001600160a01b03168152600190910190602001808311611e59575b5050505050815260200160048201805480602002602001604051908101604052809291908181526020018280548015611ed957602002820191906000526020600020905b81546001600160a01b03168152600190910190602001808311611ebb575b5050505050815260200160058201548152602001600682018054611efc90613e93565b80601f0160208091040260200160405190810160405280929190818152602001828054611f2890613e93565b8015611f755780601f10611f4a57610100808354040283529160200191611f75565b820191906000526020600020905b815481529060010190602001808311611f5857829003601f168201915b50505050508152602001600782018054611f8e90613e93565b80601f0160208091040260200160405190810160405280929190818152602001828054611fba90613e93565b80156120075780601f10611fdc57610100808354040283529160200191612007565b820191906000526020600020905b815481529060010190602001808311611fea57829003601f168201915b50505091835250506008820154602082015260099091015460ff80821615156040840152610100909104161515606090910152825183908390811061204e5761204e613ecd565b6020908102919091010152600101611d56565b6005602052816000526040600020818154811061207d57600080fd5b90600052602060002001600091509150505481565b60005b84518110156121495760006001600160a01b03168582815181106120bb576120bb613ecd565b60200260200101516001600160a01b031614806121025750336001600160a01b03168582815181106120ef576120ef613ecd565b60200260200101516001600160a01b0316145b156121415760405162461bcd60e51b815260206004820152600f60248201526e496e76616c6964206164647265737360881b604482015260640161076f565b600101612095565b5060008054604080516101608101825282815233602080830191825292820189815260608084018190526080840181905260a084018a905260c0840189905260e08401889052426101008501526101208401879052610140840187905260018601875595805282517f290decd9548b62a8d60345a988386fc84ba6bc95484008f6362f93160ef3e563600a870290810191825592517f290decd9548b62a8d60345a988386fc84ba6bc95484008f6362f93160ef3e564840180546001600160a01b0319166001600160a01b039092169190911790559051805195969586959293612259937f290decd9548b62a8d60345a988386fc84ba6bc95484008f6362f93160ef3e5659091019201906137d6565b50606082015180516122759160038401916020909101906137d6565b50608082015180516122919160048401916020909101906137d6565b5060a0820151600582015560c082015160068201906122b0908261400c565b5060e082015160078201906122c5908261400c565b50610100828101516008830155610120830151600990920180546101409094015161ffff1990941692151561ff001916929092179215150291909117905560005b8751811015612367576004600089838151811061232557612325613ecd565b6020908102919091018101516001600160a01b031682528181019290925260400160009081208054600181810183559183529290912090910185905501612306565b505033600090815260036020908152604082208054600181018255908352912001919091555050505050565b3360009081526002602052604090205483908111156123c45760405162461bcd60e51b815260040161076f90613f0c565b846001600160a01b03811615806123e357506001600160a01b03811633145b156124225760405162461bcd60e51b815260206004820152600f60248201526e496e76616c6964206164647265737360881b604482015260640161076f565b600180546040805160e08101825282815233602082019081526001600160a01b038b8116938301938452606083018b8152608084018b815260a085018b90524260c086015286880188556000979097528351600787027fb10e2d527612073b26eecdfd717e6a320cf44b4afac2b0732d9fcbe2b7fa0cf6810191825593517fb10e2d527612073b26eecdfd717e6a320cf44b4afac2b0732d9fcbe2b7fa0cf7850180549185166001600160a01b031992831617905595517fb10e2d527612073b26eecdfd717e6a320cf44b4afac2b0732d9fcbe2b7fa0cf88501805491909416961695909517909155517fb10e2d527612073b26eecdfd717e6a320cf44b4afac2b0732d9fcbe2b7fa0cf98201559351929390927fb10e2d527612073b26eecdfd717e6a320cf44b4afac2b0732d9fcbe2b7fa0cfa90910190612565908261400c565b5060a0820151600582019061257a908261400c565b5060c091909101516006909101553360008181526005602090815260408083208054600181018255908452828420018590559282526002905290812080548892906125c6908490613f71565b90915550506001600160a01b038716600090815260026020526040812080548892906125f3908490613ef9565b909155505050505050505050565b6000818154811061261157600080fd5b60009182526020909120600a909102018054600182015460058301546006840180549395506001600160a01b0390921693909290919061265090613e93565b80601f016020809104026020016040519081016040528092919081815260200182805461267c90613e93565b80156126c95780601f1061269e576101008083540402835291602001916126c9565b820191906000526020600020905b8154815290600101906020018083116126ac57829003601f168201915b5050505050908060070180546126de90613e93565b80601f016020809104026020016040519081016040528092919081815260200182805461270a90613e93565b80156127575780601f1061272c57610100808354040283529160200191612757565b820191906000526020600020905b81548152906001019060200180831161273a57829003601f168201915b50505050600883015460099093015491929160ff80821692506101009091041688565b6001818154811061278a57600080fd5b6000918252602090912060079091020180546001820154600283015460038401546004850180549496506001600160a01b039384169592909316939092906127d190613e93565b80601f01602080910402602001604051908101604052809291908181526020018280546127fd90613e93565b801561284a5780601f1061281f5761010080835404028352916020019161284a565b820191906000526020600020905b81548152906001019060200180831161282d57829003601f168201915b50505050509080600501805461285f90613e93565b80601f016020809104026020016040519081016040528092919081815260200182805461288b90613e93565b80156128d85780601f106128ad576101008083540402835291602001916128d8565b820191906000526020600020905b8154815290600101906020018083116128bb57829003601f168201915b5050505050908060060154905087565b6060600a80546105e090613e93565b6004602052816000526040600020818154811061207d57600080fd5b6003602052816000526040600020818154811061207d57600080fd5b6000818154811061294257612942613ecd565b60009182526020918290206040805161016081018252600a9093029091018054835260018101546001600160a01b03168385015260028101805483518187028101870185528181529495929493860193928301828280156129cc57602002820191906000526020600020905b81546001600160a01b031681526001909101906020018083116129ae575b5050505050815260200160038201805480602002602001604051908101604052809291908181526020018280548015612a2e57602002820191906000526020600020905b81546001600160a01b03168152600190910190602001808311612a10575b5050505050815260200160048201805480602002602001604051908101604052809291908181526020018280548015612a9057602002820191906000526020600020905b81546001600160a01b03168152600190910190602001808311612a72575b5050505050815260200160058201548152602001600682018054612ab390613e93565b80601f0160208091040260200160405190810160405280929190818152602001828054612adf90613e93565b8015612b2c5780601f10612b0157610100808354040283529160200191612b2c565b820191906000526020600020905b815481529060010190602001808311612b0f57829003601f168201915b50505050508152602001600782018054612b4590613e93565b80601f0160208091040260200160405190810160405280929190818152602001828054612b7190613e93565b8015612bbe5780601f10612b9357610100808354040283529160200191612bbe565b820191906000526020600020905b815481529060010190602001808311612ba157829003601f168201915b50505091835250506008820154602082015260099091015460ff8082161515604084015261010090910416151560609091015261012081015180612c0457508061014001515b15612c215760405162461bcd60e51b815260040161076f90613f3a565b6000808381548110612c3557612c35613ecd565b90600052602060002090600a02019050600181600201805490501115612ca75760405162461bcd60e51b815260206004820152602160248201527f43616e6e6f74206465636c696e652067726f7570207472616e73616374696f6e6044820152607360f81b606482015260840161076f565b6000805b6002830154811015612dac57336001600160a01b0316836002018281548110612cd657612cd6613ecd565b6000918252602090912001546001600160a01b031603612da4576002830154600192508214612d6a57600283018054612d0d613ecd565b6000918252602090912001546002840180546001600160a01b039092169183908110612d3b57612d3b613ecd565b9060005260206000200160006101000a8154816001600160a01b0302191690836001600160a01b031602179055505b82600201805480612d7d57612d7d613f84565b600082815260209020810160001990810180546001600160a01b0319169055019055612dac565b600101612cab565b5080612dfa5760405162461bcd60e51b815260206004820152601b60248201527f596f7520617265206e6f7420696e207468697320726571756573740000000000604482015260640161076f565b60005b33600090815260046020526040902054811015612ec15782548103612eb9573360009081526004602052604090208054612e3990600190613f71565b81548110612e4957612e49613ecd565b600091825260208083209091015433835260049091526040909120805483908110612e7657612e76613ecd565b6000918252602080832090910192909255338152600490915260409020805480612ea257612ea2613f84565b600190038181906000526020600020016000905590555b600101612dfd565b5060098201805461ff00191661010017905581546001830154604080516001600160a01b0390921682523360208301527f6bf547682a5fde46ebfbc6a9dd2d8c749279c75b4d9622061845b6d335c6e5ef910160405180910390a250505050565b604080513381526001600160a01b03831660208201527f63133b06dd0cba1ece895fa0ce52aefffbedab1f38284de9d82f07801ab733779101611250565b600033610671818585613511565b600b5460405163095ea7b360e01b8152306004820152602481018390526001600160a01b039091169063095ea7b3906044016020604051808303816000875af1158015612fbf573d6000803e3d6000fd5b505050506040513d601f19601f82011682018060405250810190612fe39190613f9a565b50600b546040516323b872dd60e01b8152336004820152306024820152604481018390526001600160a01b03909116906323b872dd906064016020604051808303816000875af115801561303b573d6000803e3d6000fd5b505050506040513d601f19601f8201168201806040525081019061305f9190613f9a565b50336000908152600260205260408120805483929061307f908490613ef9565b909155505060408051338152602081018390527f688e89c1496876b0d792df75671fbe827183660b170bb8983d82511a6a4b7d1b9101611250565b6001600160a01b038116600090815260036020908152604080832080548251818502810185019093528083526060949383018282801561311957602002820191906000526020600020905b815481526020019060010190808311613105575b505050505090506000815167ffffffffffffffff81111561313c5761313c613ba0565b60405190808252806020026020018201604052801561317557816020015b61316261376f565b81526020019060019003908161315a5790505b50905060005b825181101561112957600083828151811061319857613198613ecd565b6020026020010151815481106131b0576131b0613ecd565b60009182526020918290206040805161016081018252600a9093029091018054835260018101546001600160a01b031683850152600281018054835181870281018701855281815294959294938601939283018282801561323a57602002820191906000526020600020905b81546001600160a01b0316815260019091019060200180831161321c575b505050505081526020016003820180548060200260200160405190810160405280929190818152602001828054801561329c57602002820191906000526020600020905b81546001600160a01b0316815260019091019060200180831161327e575b50505050508152602001600482018054806020026020016040519081016040528092919081815260200182805480156132fe57602002820191906000526020600020905b81546001600160a01b031681526001909101906020018083116132e0575b505050505081526020016005820154815260200160068201805461332190613e93565b80601f016020809104026020016040519081016040528092919081815260200182805461334d90613e93565b801561339a5780601f1061336f5761010080835404028352916020019161339a565b820191906000526020600020905b81548152906001019060200180831161337d57829003601f168201915b505050505081526020016007820180546133b390613e93565b80601f01602080910402602001604051908101604052809291908181526020018280546133df90613e93565b801561342c5780601f106134015761010080835404028352916020019161342c565b820191906000526020600020905b81548152906001019060200180831161340f57829003601f168201915b50505091835250506008820154602082015260099091015460ff80821615156040840152610100909104161515606090910152825183908390811061347357613473613ecd565b602090810291909101015260010161317b565b6107ae8383836001613570565b6001600160a01b03838116600090815260076020908152604080832093861683529290522054600019811461350b57818110156134fc57604051637dc7a0d960e11b81526001600160a01b0384166004820152602481018290526044810183905260640161076f565b61350b84848484036000613570565b50505050565b6001600160a01b03831661353b57604051634b637e8f60e11b81526000600482015260240161076f565b6001600160a01b0382166135655760405163ec442f0560e01b81526000600482015260240161076f565b6107ae838383613645565b6001600160a01b03841661359a5760405163e602df0560e01b81526000600482015260240161076f565b6001600160a01b0383166135c457604051634a1406b160e11b81526000600482015260240161076f565b6001600160a01b038085166000908152600760209081526040808320938716835292905220829055801561350b57826001600160a01b0316846001600160a01b03167f8c5be1e5ebec7d5bd14f71427d1e84f3dd0314c0f7b2291e5b200ac8c7c3b9258460405161363791815260200190565b60405180910390a350505050565b6001600160a01b0383166136705780600860008282546136659190613ef9565b909155506136e29050565b6001600160a01b038316600090815260066020526040902054818110156136c35760405163391434e360e21b81526001600160a01b0385166004820152602481018290526044810183905260640161076f565b6001600160a01b03841660009081526006602052604090209082900390555b6001600160a01b0382166136fe5760088054829003905561371d565b6001600160a01b03821660009081526006602052604090208054820190555b816001600160a01b0316836001600160a01b03167fddf252ad1be2c89b69c2b068fc378daa952ba7f163c4a11628f55a4df523b3ef8360405161376291815260200190565b60405180910390a3505050565b6040518061016001604052806000815260200160006001600160a01b03168152602001606081526020016060815260200160608152602001600081526020016060815260200160608152602001600081526020016000151581526020016000151581525090565b82805482825590600052602060002090810192821561382b579160200282015b8281111561382b57825182546001600160a01b0319166001600160a01b039091161782556020909201916001909101906137f6565b5061383792915061383b565b5090565b5b80821115613837576000815560010161383c565b6000815180845260005b818110156138765760208185018101518683018201520161385a565b506000602082860101526020601f19601f83011685010191505092915050565b6020815260006138a96020830184613850565b9392505050565b80356001600160a01b03811681146138c757600080fd5b919050565b600080604083850312156138df57600080fd5b6138e8836138b0565b946020939093013593505050565b60006020828403121561390857600080fd5b5035919050565b60006020828403121561392157600080fd5b6138a9826138b0565b600060208083018184528085518083526040925060408601915060408160051b87010184880160005b838110156139e957888303603f19018552815180518452878101516001600160a01b03908116898601528782015116878501526060808201519085015260808082015160e082870181905291906139ac83880182613850565b9250505060a080830151868303828801526139c78382613850565b60c0948501519790940196909652505094870194925090860190600101613953565b509098975050505050505050565b600080600060608486031215613a0c57600080fd5b613a15846138b0565b9250613a23602085016138b0565b9150604084013590509250925092565b60008151808452602080850194506020840160005b83811015613a6d5781516001600160a01b031687529582019590820190600101613a48565b509495945050505050565b600060208083018184528085518083526040925060408601915060408160051b87010184880160005b838110156139e957603f19898403018552815180518452878101516001600160a01b0316888501528681015161016088860181905290613ae382870182613a33565b91505060608083015186830382880152613afd8382613a33565b9250505060808083015186830382880152613b188382613a33565b9250505060a080830151818701525060c08083015186830382880152613b3e8382613850565b9250505060e08083015186830382880152613b598382613850565b9250505061010080830151818701525061012080830151613b7d8288018215159052565b505061014091820151151594909101939093529386019390860190600101613aa1565b634e487b7160e01b600052604160045260246000fd5b604051601f8201601f1916810167ffffffffffffffff81118282101715613bdf57613bdf613ba0565b604052919050565b600082601f830112613bf857600080fd5b813567ffffffffffffffff811115613c1257613c12613ba0565b613c25601f8201601f1916602001613bb6565b818152846020838601011115613c3a57600080fd5b816020850160208301376000918101602001919091529392505050565b60008060008060808587031215613c6d57600080fd5b843567ffffffffffffffff80821115613c8557600080fd5b818701915087601f830112613c9957600080fd5b8135602082821115613cad57613cad613ba0565b8160051b613cbc828201613bb6565b928352848101820192828101908c851115613cd657600080fd5b958301955b84871015613cfb57613cec876138b0565b82529583019590830190613cdb565b995050508801359550506040870135915080821115613d1957600080fd5b613d2588838901613be7565b93506060870135915080821115613d3b57600080fd5b50613d4887828801613be7565b91505092959194509250565b60008060008060808587031215613d6a57600080fd5b613d73856138b0565b935060208501359250604085013567ffffffffffffffff80821115613d1957600080fd5b8881526001600160a01b03881660208201526040810187905261010060608201819052600090613dc983820189613850565b90508281036080840152613ddd8188613850565b60a0840196909652505091151560c0830152151560e09091015295945050505050565b8781526001600160a01b038781166020830152861660408201526060810185905260e060808201819052600090613e3990830186613850565b82810360a0840152613e4b8186613850565b9150508260c083015298975050505050505050565b60008060408385031215613e7357600080fd5b613e7c836138b0565b9150613e8a602084016138b0565b90509250929050565b600181811c90821680613ea757607f821691505b602082108103613ec757634e487b7160e01b600052602260045260246000fd5b50919050565b634e487b7160e01b600052603260045260246000fd5b634e487b7160e01b600052601160045260246000fd5b8082018082111561067757610677613ee3565b602080825260149082015273496e73756666696369656e742062616c616e636560601b604082015260600190565b60208082526019908201527f5265717565737420616c72656164792070726f63657373656400000000000000604082015260600190565b8181038181111561067757610677613ee3565b634e487b7160e01b600052603160045260246000fd5b600060208284031215613fac57600080fd5b815180151581146138a957600080fd5b601f8211156107ae576000816000526020600020601f850160051c81016020861015613fe55750805b601f850160051c820191505b8181101561400457828155600101613ff1565b505050505050565b815167ffffffffffffffff81111561402657614026613ba0565b61403a816140348454613e93565b84613fbc565b602080601f83116001811461406f57600084156140575750858301515b600019600386901b1c1916600185901b178555614004565b600085815260208120601f198616915b8281101561409e5788860151825594840194600190910190840161407f565b50858210156140bc5787850151600019600388901b60f8161c191681555b5050505050600190811b0190555056fea2646970667358221220c3fd8692cfd0ab8010a47eb7e139904e42e4391b4a9362ba3ca82f0ecb89ca5864736f6c63430008170033","linkReferences":{}},"methodIdentifiers":{"accept(uint256)":"19b05f49","acceptAll()":"0ea1cbf6","allowance(address,address)":"dd62ed3e","approve(address,uint256)":"095ea7b3","balance(address)":"e3d670d7","balanceOf(address)":"70a08231","cancel(uint256)":"40e58ee5","decimals()":"313ce567","decline(uint256)":"a0355f4e","deposit(uint256)":"b6b55f25","getBalance(address)":"f8b2cb4f","getPayments(address)":"1d6a1711","getRequestsIn(address)":"486369b8","getRequestsOut(address)":"d1ca3bdd","name()":"06fdde03","nudge(address)":"a862c8ec","pay(address,uint256,string,string)":"7ade1d5e","payments(uint256)":"87d81789","paymentsOut(address,uint256)":"4a941d1e","request(address[],uint256,string,string)":"7a243be9","requests(uint256)":"81d12c58","requestsIn(address,uint256)":"9c38c73e","requestsOut(address,uint256)":"9dc6cf8c","symbol()":"95d89b41","totalSupply()":"18160ddd","transfer(address,uint256)":"a9059cbb","transferFrom(address,address,uint256)":"23b872dd","withdraw(uint256)":"2e1a7d4d"},"id":51}